:0800030068656C6C6F0D0A00CA
:041100008200000069
:10107A00121096D2902090097BFF7A007903120F02
:0C108A00727BFE7A00790812103480E7B7
:101096001210CC12000E7BFE7A007908120B997B97
:0B10A600FE7A007908120913020A1DEF
:10000E00438E805389F0758ACD758CD4C28DD28C77
:05001E00D2A9D2AF22BF
:03000B00020E36AC
:100E3600C0E0C0F0C083C082C0D075D0107BFE7AFF
:100E46000079081207F67801E22401FF18E234005F
:100E5600FE7C037DE81201FD7800ECF208EDF24C11
:0F0E66007002B2CCD0D0D082D083D0F0D0E032A6
:02110400C11117
:1010CC00E5A2543FF5A27598DA75D7E875D6FF7589
:0A10DC008E14438E01D2ACD2AF2275
:0300230002112A9D
:0D112A00309802C298309904C299C2113267
:101118002011FDEF30D004D29B8002C29BD211F582
:0211280099220A
:0A0F7200785EEBF208EAF208E9F2FB
:100F7C00E4FE785EE2FB08E2FA08E2F98E82758301
:0D0F8C0000120135FF60061211180E80E5FD
:010F99002235
:10077C005F73697A6520746F206269670D0A002DBA
:10078C002D2D2D2D2D2D2D44756D7054696D65728B
:10079C004D616E616765722D2D2D2D2D2D2D0D0A40
:1007AC000073697A65203D202564000D0A00636F93
:1007BC00756E74203D202564006D6178636F756ED5
:1007CC0074203D20256400706F6F6C73697A65200E
:1007DC003D202564002D2D2D2D2D2D2D2D656E6488
:0A07EC002D2D2D2D2D2D2D0D0A00B1
:0A0B99007847EBF208EAF208E9F2EF
:100BA300E408F27847E2FB08E2FA08E2F9E412010A
:100BB300B77847E2FB08E2FA08E2F9900001E4F5AE
:100BC300F01202D7900003E475F0641202D7E478C0
:100BD3004AF2784AE2FFC394045059EF75F007A430
:100BE300FFAEF07847E2FB08E2FA08E22FF9EA3EAB
:100BF300FA900007E41201C9900008E41201C990B9
:100C03000005E41201C9900006E41201C97B007AD1
:100C1300007900C003C002C0017847E2FB08E2FA92
:100C230008E22FF9EA3EFA900009120334784AE207
:040C330004F2809EA9
:010C3700229A
:0A07F600900001E475F00102028A90
:10103400900003120252FFAEF0900001120252C35C
:101044009FE5F09E400C900001E4F5F01202D712E7
:031054000CC422A7
:0A0CC4007847EBF208EAF208E9F2C3
:100CCE00E408F2F27847E2FB08E2FA08E2F91201D0
:100CDE001CFF08E2FEC39F5064EE75F007A4FF7878
:100CEE0047E2FB08E2FA08E22FF9EA35F0FA900043
:100CFE00087401120184900007120135FF9000085C
:100D0E00120135C39F402F784AE275F007A4FF7891
:100D1E0047E2FB08E2FA08E22FF9EA35F0FA900012
:100D2E00051201356010900008E41201C990000907
:0D0D3E0012030412038D784AE204F280874C
:010D4B002285
:100AEC00784AEDF27847EBF208EAF208E9F21201E3
:100AFC001CC3940440097BFF7A07797C020F72783F
:100B0C0047E2FB08E2FA08E22405F9E43AFAC003EA
:100B1C00C002C0017847E2FB08E2FA08E2F91201D0
:100B2C001C75F007A4D001D002D00329F9EA35F0E6
:100B3C00FA784FEBF208EAF208E9F27847E2FB08A0
:100B4C00E2FA08E2F97401120162784AE2FF784F86
:100B5C00E2FB08E2FA08E2F9900001EF1201C97811
:100B6C004BE29000021201C974011201B7784CE2F9
:100B7C00FB08E2FA08E2F9C003C002C00108E2FB7C
:0D0B8C0008E2FA08E2F99000041203342296
:0D0DA1007847EBF208EAF208E9F208EDF2FB
:100DAE00E4784CF2F27847E2FB08E2FA08E2F91234
:100DBE00011CFF784CE2FEC39F5029EE75F007A48C
:100DCE00FFE92FF9EA35F0FA900006120135FF78A7
:100DDE004AE2B5070808E29000051201C9784CE214
:040DEE0004F280C1CA
:010DF20022DE
:0D0800007802EBF208EAF208E9F208EDF2E6
:10080D00E408F208F27802E2FB08E2FA08E2F912D3
:10081D00011CFD7806E2FE08E2FFC39D7480F8EE30
:10082D0064809850407C007D071201EB7802E2FB5A
:10083D0008E2FA08E22FF9EA3EFA900006120135B5
:10084D00FF7805E2B507117802E2FB08E2FA08E24B
:10085D00F974FF120162800D7807E22401F218E2AB
:10086D003400F280A07802E2FB08E2FA08E2F91205
:10087D00011CFFC37807E29F7480F5F018E26480D5
:10088D0095F040022112E2FE08E2FF7C007D071286
:10089D0001EB7802E2FB08E2FA08E22FF9EA3EFAF0
:1008AD0090000E120135FDED9000071201C9900068
:1008BD000F120135FDED9000081201C990000C12C8
:1008CD000135FDED9000051201C990000D120135A5
:1008DD00FDED9000061201C9900010120304C00333
:1008ED00C002C0017802E2FB08E2FA08E22FF9EA41
:1008FD003EFA9000091203347807E22401F218E25F
:05090D003400F201724C
:0109120022C2
:0A0913007847EBF208EAF208E9F277
:10091D007BFF7A07798B120F72786174FFF208747E
:10092D0007F20874ADF27847E2FB08E2FA08E2F943
:10093D0012011CFF7864E4F208EFF27BFE7A007975
:10094D004A12047D7BFE7A00794A120F727BFF7A80
:10095D000779B7120F72786174FFF2087407F20805
:10096D0074BAF27847E2FB08E2FA08E2F990000166
:10097D00120252FF7864E5F0F208EFF27BFE7A0086
:10098D00794A12047D7BFE7A00794A120F727BFF41
:10099D007A0779B7120F72786174FFF2087407F253
:1009AD000874C5F27847E2FB08E2FA08E2F9900014
:1009BD0003120252FF7864E5F0F208EFF27BFE7A43
:1009CD0000794A12047D7BFE7A00794A120F727B00
:1009DD00FF7A0779B7120F72786174FFF208740706
:1009ED00F20874D3F208E4F208741CF27BFE7A006C
:1009FD00794A12047D7BFE7A00794A120F727BFFD1
:100A0D007A0779B7120F727BFF7A0779E1020F72BD
:100F1700736D616C6C6572696E69740D0A00746932
:100F27006D6572310D0A0074696D6572323A0D0A8A
:100F3700000D0A0074696D6572340D0A0035353588
:010F47003574
:0A110600812B01812C0182290001D8
:100A1D007BFE7A007908120B997BFE7A0079081219
:100A2D000913784B7401F20874FFF2087410F20880
:100A3D0074B1F20874FEF2087400F208742DF27BA2
:100A4D00FE7A0079087D01120AEC7BFE7A007908A6
:100A5D00120913782BE2784B604D7405F20874FF80
:100A6D00F208740DF20874F3F20874FEF2087400C3
:100A7D00F2087434F27BFE7A0079087D02120AECDA
:100A8D00784B740AF20874FFF2087410F2087410AF
:100A9D00F20874FEF2087400F208743BF27BFE7AE1
:100AAD000079087D0480237401F20874FFF2087444
:100ABD000FF208749AF20874FEF2087400F20874CA
:100ACD0034F27BFE7A0079087D02120AEC7BFF7A04
:0F0ADD000F7917120F727BFE7A00790802091346
:1010B1007BFF7A0F7925120F721211447BFE7A00A1
:0B10C1007908E4784BF27D01020DA1DC
:100DF30078477C007DFE7BFF7A0F79447E007F0479
:100E03001200F6782CE224307847F2782908E2249D
:100E1300307848F2087439F2E408F27BFE7A0079FC
:100E230047120D4C121057EF70FA7BFF7A0F792E91
:030E3300020F7239
:100F9A00E4FF120FC2120EB2E47846F27BFE7A0028
:100FAA007942120F727BFF7A0F7938120F727F041F
:070FBA007842E4F208DFFCBD
:010FC100220D
:10101000782AE22401F218E23400F2D308E29414B0
:1010200018E294004005E4F20804F27BFF7A0F799D
:041030003B020F72FE
:05114D00344310100105
:071110008542000000000011
:0A0F4800EBF208EAF208E9F2C2B386
:100F5200E4FEEF30E704D2B58002C2B5EF25E0FF30
:0F0F6200D2B430B6034401FFC2B40EEEB408E3BC
:010F7100225D
:09114400C2B2D2B3C2B4D2B72288
:0C113700C2B3120F52E4FF120F52D2B3E9
:011143002289
:0910E6007D017F211210EF7F2231
:1010EF00C2B3120F52AC07AF05120F52D2B3AF04F7
:0110FF0022CE
:020EE50078484B
:100EE700120F48AD07E4FC784BE2FFECC39F501BA1
:100EF700E4FF120F527848E2FB08E2FA08E2F98CA5
:0F0F070082758300EF1201C90C80DCD2B3AF05F5
:010F160022B8
:0D0E75007BFF7A11794D78527405F27F2AC7
:020E8200784FA7
:100E8400120F48AD07E4FC7852E2FFECC39F5019FF
:100E9400784FE2FB08E2FA08E2F98C8275830012CB
:0D0EA4000135FF120F520C80DED2B3AF05F6
:010EB100221E
:100D4C00784BEBF208EAF208E9F2C2B27BFF7A11B7
:100D5C00794D78527405F27F30120E82120E75782E
:100D6C004BE2FB08E2FA08E2F978527404F27FA035
:100D7C00120E821210E67D0A7F241210EF7D407F46
:100D8C00251210EF7D077F261210EF7D0E7F2012AB
:050D9C0010EFD2B222AD
:100FC200C2B2120E751210E67D407F251210EF7D1F
:100FD200047F311210EF7D077F261210EF7D0F7F05
:070FE200201210EFD2B22231
:101057007F071211378F202005033004137DFF7F90
:10106700271210EFC2B37FE1120F52D2B37F0022D3
:031077007F0122D4
:100EB2007F071211378F20300622C2B27BFE7A00E2
:100EC2007942784B7404F27F61120EE57DFF7F2731
:100ED2001210EFC2B37FE2120F52D2B37DFF7F270F
:030EE2000210EF0C
:03000000020C38B7
:0C0C3800787FE4F6D8FD758122020C7F65
:10002600E709F608DFFA8046E709F208DFFA803EBC
:1000360088828C83E709F0A3DFFA8032E309F608A9
:10004600DFFA8078E309F208DFFA807088828C8311
:10005600E309F0A3DFFA806489828A83E0A3F608C5
:10006600DFFA805889828A83E0A3F208DFFA804C9F
:1000760080D280FA80C680D4806980F28033801076
:1000860080A680EA809A80A880DA80E280CA8033DF
:1000960089828A83ECFAE493A3C8C582C8CCC58357
:1000A600CCF0A3C8C582C8CCC583CCDFE9DEE78027
:1000B6000D89828A83E493A3F608DFF9ECFAA9F0A6
:1000C600EDFB2289828A83ECFAE0A3C8C582C8CCFC
:1000D600C583CCF0A3C8C582C8CCC583CCDFEADE15
:1000E600E880DB89828A83E493A3F208DFF980CC77
:1000F60088F0EF60010E4E60C388F0ED2402B40470
:100106000050B9F582EB2402B4040050AF23234516
:06011600822390007673C5
:10011C00BB010689828A83E0225002E722BBFE02E1
:09012C00E32289828A83E4932214
:10013500BB010CE58229F582E5833AF583E022507F
:1001450006E92582F8E622BBFE06E92582F8E222C9
:0D015500E58229F582E5833AF583E49322E3
:10016200BB010989828A83F8E028F022500327F72D
:1001720022BBFE05F8E328F3228A838982F8E493FE
:02018200282231
:10018400BB010FF8E58229F582E5833AF583E0287F
:10019400F0225009C58229F8E58226F622BBFE0921
:1001A400C58229F8E22582F222F8EA2583F583E95B
:0301B4009328226B
:1001B700BB010689828A83F0225002F722BBFE0127
:0201C700F32221
:1001C900F8BB010DE58229F582E5833AF583E8F06C
:1001D900225006E92582C8F622BBFE05E92582C818
:0201E900F22200
:1001EB00EF8DF0A4A8F0CF8CF0A428CE8DF0A42E28
:0201FB00FE22E2
:1001FD00BC000BBE0029EF8DF084FFADF022E4CCE6
:10020D00F875F008EF2FFFEE33FEEC33FCEE9DECAE
:10021D00984005FCEE9DFE0FD5F0E9E4CEFD22EDF4
:10022D00F8F5F0EE8420D21CFEADF075F008EF2F3E
:10023D00FFED33FD4007985006D5F0F222C398FD2F
:05024D000FD5F0EA22CC
:10025200BB0110E58229F582E5833AF583E0F5F0EA
:10026200A3E0225009E92582F886F008E622BBFEC7
:100272000AE92582F8E2F5F008E222E5832AF5830D
:08028200E993F5F0A3E99322D2
:10028A00BB010DC58229C582C5833AC58302039382
:10029A005011C58229F808E5F026F618F5F0E5822E
:1002AA0036F622BBFE11C58229F808E225F0F5F0E0
:1002BA00F218E23582F222F8E58229F582E5832AEC
:0D02CA00F58374019325F0F5F0E4933822DC
:1002D700F8BB0111E58229F582E5833AF583E8F059
:1002E700E5F0A3F0225009E92582C8F608A6F02216
:0D02F700BBFE09E92582C8F2E5F008F222FD
:10030400BB010DE58229F582E5833AF5830203BB3F
:100314005007E92582F80203A9BBFE07E92582F804
:100324000203CDE58229F582E5833AF5830203EFE2
:10033400BB0120E58229F582E5833AF583D0F0D02C
:10034400E0F8D0E0F9D0E0FAD0E0FBE8C0E0C0F09B
:100354000203C45018E92582F8D083D082D0E0F992
:10036400D0E0FAD0E0FBC082C0830203B2BBFE1827
:10037400E92582F8D083D082D0E0F9D0E0FAD0E049
:09038400FBC082C0830203E622E3
:06038D008A838982E473FB
:10042100E5082461F8E2050822785E300F02786160
:10043100E475F0011203D602011C2008EB7F2ED2D5
:10044100088018EF540F2490D43440D4FF300C0BA3
:10045100EF24BFB41A0050032461FFE509600215BF
:1004610009050CE50C7002050B300F0D785EE47583
:10047100F0011203D6EF0201B7020FE97403D20FA4
:100481008003E4C20FF508785E1203E6E4F509F58E
:100491000BF50CE50960077F2012045C80F5750AF5
:1004A100FFC209C208C20AC20BC20DC20EC210129B
:1004B100042AFF700D300F057F0012046DAF0CAEE2
:1004C1000B22B4255FC2D5C20C12042AFF24D0B47A
:1004D1000A00501A75F00A780930D50508B6FF01EF
:1004E10006C6A426F620D5047002D20B80D924CFEB
:1004F100B41A00EF5004C2E5D20C02066CD2098096
:10050100C6D20880C0D20A80BCD2D580BAD20D80B2
:10051100B47F2012045C200A077401B5090040F180
:10052100120421FF12045C020494D210D20E8095B1
:10053100120421FB120421FA120421F94A4B70061C
:10054100793D7A077BFF200A2EE509602A7E008E1D
:100551008275830012013560060EEE650A70F0C2E5
:10056100D5EBC0E0EAC0E0E9C0E0EE1206B3D0E0AE
:10057100F9D0E0FAD0E0FB12011CFF60AAEBC0E069
:10058100EAC0E0E9C0E012045CD0E02401F9D0E067
:100591003400FAD0E0FBE50A0460DCD50AD9808793
:1005A1007BFF7A0679AFD20A809C791080027908A4
:1005B100C20EC2108008D2D5790A8004790AC2D548
:1005C100E50A047002F50AE4FAFDFEFF120421FCBB
:1005D1007B08200913120421FD7B1030080A120444
:1005E10021FE120421FF7B20EC3382D592D55013DA
:1005F100C3E43008069FFFE49EFEE42009039DFD4D
:10060100E49CFCE4CBF8C209EC700CCFCECDCCE875
:1006110024F8F870F38017C3EF33FFEE33FEED33A8
:10062100FDEC33FCEB33FB994002FB0FD8E9EB30D7
:100631000905F8D0E0C448B209C0E00AEC4D4E4FBC
:1006410078207B0070C2EAB50A0040BCC0E0120607
:10065100B5D0F0D0E0200904C4C0E0C4B209C0F0B4
:10066100120445D0F0D5F0EB0204941203FB0531DE
:100671005305AB5805024C04FE4205AF4F05B74484
:1006810005B74905174305BD5505A14605A1450512
:01069100A1C7
:1006920047075D5005062D050A2E052D2B050E2355
:1006A200052B2007462A04C648000005253F3F3F88
:1006B20000790AA2D5200B14300D09B910020404E6
:1006C200B9080104A2D5200E02500104200A689242
:1006D2000AB509005034C0E07F20300B197F30A2E8
:1006E2000A720E720D500F12070CC20AC20EC20D10
:1006F200C2107F30800F300D03E9C0E012045C307D
:100702000D03D0E0F9D0E0B509CC300D177F30B938
:10071200100C12045C7F58300C077F788003B908F4
:100722000312045C300A057F2D02045C7F20201036
:10073200F87F2B200EF322920A80CF286E756C6C04
:100742002900D2091204213009F8C209780930D5EA
:100752000108F60204C62D5043495812042124030D
:10076200B405004001E49007589312044D743A1204
:0A077200044DD20B7509040205AB1B
:100C440002107AE493A3F8E493A34003F68001F23C
:100C540008DFF48029E493A3F85407240CC8C333B1
:100C6400C4540F4420C8834004F456800146F6DF80
:100C7400E4800B0102040810204080901100E47EFF
:100C8400019360BCA3FF543F30E509541FFEE49375
:100C9400A360010ECF54C025E060A840B8E493A33C
:100CA400FAE493A3F8E493A3C8C582C8CAC583CA67
:100CB400F0A3C8C582C8CAC583CADFE9DEE780BE1F
:0111170000D7
:10039300C5F0F8A3E028F0C5F0F8E58215827002F5
:0603A3001583E038F02292
:0903A900E6FB08E6FA08E6F92279
:0903B200EBF608EAF608E9F62270
:0903BB00E0FBA3E0FAA3E0F92243
:0903C400EBF0A3EAF0A3E9F0223A
:0903CD00E2FB08E2FA08E2F92261
:1003D600FAE2FB0808E2F925F0F218E2CA3AF2223C
:0903E600EBF208EAF208E9F22248
:0C03EF00E493FB740193FA740293F9226A
:1003FB00D083D082F8E4937012740193700DA3A391
:10040B0093F8740193F5828883E4737402936860A4
:06041B00EFA3A3A380DFA4
:100FE900EFB40A07740D120FF4740A309811A89916
:100FF900B8130CC2983098FDA899C298B811F63068
:0710090099FDC299F599223F
:00000001FF
